{
  "contractName": "ToDoList",
  "abi": [
    {
      "inputs": [],
      "stateMutability": "nonpayable",
      "type": "constructor"
    },
    {
      "anonymous": false,
      "inputs": [
        {
          "indexed": false,
          "internalType": "uint256",
          "name": "id",
          "type": "uint256"
        },
        {
          "indexed": false,
          "internalType": "bool",
          "name": "completed",
          "type": "bool"
        }
      ],
      "name": "TaskCompleted",
      "type": "event"
    },
    {
      "anonymous": false,
      "inputs": [
        {
          "indexed": false,
          "internalType": "uint256",
          "name": "id",
          "type": "uint256"
        },
        {
          "indexed": false,
          "internalType": "string",
          "name": "content",
          "type": "string"
        },
        {
          "indexed": false,
          "internalType": "bool",
          "name": "completed",
          "type": "bool"
        }
      ],
      "name": "TaskCreated",
      "type": "event"
    },
    {
      "anonymous": false,
      "inputs": [
        {
          "indexed": false,
          "internalType": "uint256",
          "name": "value",
          "type": "uint256"
        },
        {
          "indexed": false,
          "internalType": "address payable",
          "name": "recipient",
          "type": "address"
        },
        {
          "indexed": false,
          "internalType": "bool",
          "name": "completed",
          "type": "bool"
        }
      ],
      "name": "TransactionDone",
      "type": "event"
    },
    {
      "inputs": [],
      "name": "taskCount",
      "outputs": [
        {
          "internalType": "uint256",
          "name": "",
          "type": "uint256"
        }
      ],
      "stateMutability": "view",
      "type": "function"
    },
    {
      "inputs": [
        {
          "internalType": "uint256",
          "name": "",
          "type": "uint256"
        }
      ],
      "name": "tasks",
      "outputs": [
        {
          "internalType": "uint256",
          "name": "id",
          "type": "uint256"
        },
        {
          "internalType": "string",
          "name": "content",
          "type": "string"
        },
        {
          "internalType": "bool",
          "name": "completed",
          "type": "bool"
        }
      ],
      "stateMutability": "view",
      "type": "function"
    },
    {
      "inputs": [
        {
          "internalType": "string",
          "name": "_content",
          "type": "string"
        }
      ],
      "name": "createTask",
      "outputs": [],
      "stateMutability": "nonpayable",
      "type": "function"
    },
    {
      "inputs": [
        {
          "internalType": "uint256",
          "name": "_id",
          "type": "uint256"
        }
      ],
      "name": "taggleCompleted",
      "outputs": [],
      "stateMutability": "nonpayable",
      "type": "function"
    },
    {
      "inputs": [
        {
          "internalType": "address payable",
          "name": "_recipient",
          "type": "address"
        }
      ],
      "name": "sendEther",
      "outputs": [],
      "stateMutability": "nonpayable",
      "type": "function"
    }
  ],
  "bytecode": "0x60806040526000805534801561001457600080fd5b506100626040518060400160405280601681526020017f436865636b206f75742044505320776562207061676500000000000000000000815250610067640100000000026401000000009004565b6102b5565b600080549080610076836101ba565b9091555050604080516060810182526000805480835260208084018681528486018490529183526001808252949092208351815590518051939491936100c493928501929190910190610121565b50604091820151600291909101805460ff19169115159190911790556000805491517f05d0fb833127fc08168556d0e7ca9554fc3f6bc843b3b7d2bf1c35aea6bab660926101169290918591906101fc565b60405180910390a150565b82805461012d90610261565b90600052602060002090601f01602090048101928261014f5760008555610195565b82601f1061016857805160ff1916838001178555610195565b82800160010185558215610195579182015b8281111561019557825182559160200191906001019061017a565b506101a19291506101a5565b5090565b5b808211156101a157600081556001016101a6565b60006000198214156101f5577f4e487b7100000000000000000000000000000000000000000000000000000000600052601160045260246000fd5b5060010190565b83815260006020606081840152845180606085015260005b8181101561023057868101830151858201608001528201610214565b81811115610242576000608083870101525b5093151560408401525050601f91909101601f19160160800192915050565b60028104600182168061027557607f821691505b602082108114156102af577f4e487b7100000000000000000000000000000000000000000000000000000000600052602260045260246000fd5b50919050565b610751806102c46000396000f3fe608060405234801561001057600080fd5b5060043610610073577c01000000000000000000000000000000000000000000000000000000006000350463111002aa811461007857806348c981e21461008d5780638d977672146100a057806397bcfd6f146100cb578063b6cb58a5146100de575b600080fd5b61008b610086366004610519565b6100f5565b005b61008b61009b3660046105ca565b6101af565b6100b36100ae366004610607565b61024c565b6040516100c293929190610620565b60405180910390f35b61008b6100d9366004610607565b6102f9565b6100e760005481565b6040519081526020016100c2565b60008054908061010483610685565b90915550506040805160608101825260008054808352602080840186815284860184905291835260018082529490922083518155905180519394919361015293928501929190910190610451565b50604091820151600291909101805460ff19169115159190911790556000805491517f05d0fb833127fc08168556d0e7ca9554fc3f6bc843b3b7d2bf1c35aea6bab660926101a4929091859190610620565b60405180910390a150565b60405173ffffffffffffffffffffffffffffffffffffffff821690600090670de0b6b3a76400009082818181858883f193505050501580156101f5573d6000803e3d6000fd5b5060408051600180825273ffffffffffffffffffffffffffffffffffffffff84166020830152918101919091527f179e9a20067b2239cff1f72c04b7e385951d4af65c597f18abd46f99511a56b3906060016101a4565b60016020819052600091825260409091208054918101805461026d906106c7565b80601f0160208091040260200160405190810160405280929190818152602001828054610299906106c7565b80156102e65780601f106102bb576101008083540402835291602001916102e6565b820191906000526020600020905b8154815290600101906020018083116102c957829003601f168201915b5050506002909301549192505060ff1683565b600081815260016020818152604080842081516060810190925280548252928301805491939284019161032b906106c7565b80601f0160208091040260200160405190810160405280929190818152602001828054610357906106c7565b80156103a45780601f10610379576101008083540402835291602001916103a4565b820191906000526020600020905b81548152906001019060200180831161038757829003601f168201915b50505091835250506002919091015460ff161515602091820152604080830180511590526000858152600180845291902083518155838301518051949550859491936103f593850192910190610451565b50604091820151600291909101805460ff191691151591909117905581810151815184815290151560208201527fe21fa966ca5cd02748c0752352d18c48165e61cb55b4c29cccf924b5a95fcff1910160405180910390a15050565b82805461045d906106c7565b90600052602060002090601f01602090048101928261047f57600085556104c5565b82601f1061049857805160ff19168380011785556104c5565b828001600101855582156104c5579182015b828111156104c55782518255916020019190600101906104aa565b506104d19291506104d5565b5090565b5b808211156104d157600081556001016104d6565b7f4e487b7100000000000000000000000000000000000000000000000000000000600052604160045260246000fd5b60006020828403121561052b57600080fd5b813567ffffffffffffffff8082111561054357600080fd5b818401915084601f83011261055757600080fd5b813581811115610569576105696104ea565b604051601f8201601f19908116603f01168101908382118183101715610591576105916104ea565b816040528281528760208487010111156105aa57600080fd5b826020860160208301376000928101602001929092525095945050505050565b6000602082840312156105dc57600080fd5b813573ffffffffffffffffffffffffffffffffffffffff8116811461060057600080fd5b9392505050565b60006020828403121561061957600080fd5b5035919050565b83815260006020606081840152845180606085015260005b8181101561065457868101830151858201608001528201610638565b81811115610666576000608083870101525b5093151560408401525050601f91909101601f19160160800192915050565b60006000198214156106c0577f4e487b7100000000000000000000000000000000000000000000000000000000600052601160045260246000fd5b5060010190565b6002810460018216806106db57607f821691505b60208210811415610715577f4e487b7100000000000000000000000000000000000000000000000000000000600052602260045260246000fd5b5091905056fea26469706673582212200d14e1c31d52ece67880b139465438256a23ff968e5feddd41a586b5717d01bb64736f6c634300080a0033",
  "immutableReferences": {},
  "source": "// SPDX-License-Identifier: MIT\npragma solidity >0.5.16;\n\ncontract ToDoList {\n    uint public taskCount = 0;\n\n    struct Task {\n        uint id;\n        string content;\n        bool completed;\n    }\n\n    mapping(uint => Task) public tasks;\n\n\n    event TaskCreated(\n        uint id,\n        string content,\n        bool completed\n    );\n\n    event TaskCompleted(\n        uint id,\n        bool completed\n    );\n    \n    event TransactionDone(\n        uint value,\n        address payable recipient,\n        bool completed\n    );\n\n    constructor() {\n        createTask(\"Check out DPS web page\");\n    }\n\n    function createTask(string memory _content) public {\n        taskCount ++;\n        tasks[taskCount] = Task(taskCount, _content, false);\n        emit TaskCreated(taskCount, _content, false);\n    }\n\n    // Takes the tasks, find a specific task and change value\n    function taggleCompleted(uint _id) public {\n        Task memory _task = tasks[_id];\n        _task.completed = !_task.completed;\n        tasks[_id] = _task;\n        emit TaskCompleted(_id, _task.completed);\n    }\n\n    function sendEther(address payable _recipient) external {\n        _recipient.transfer(1 ether);\n        // transfer 1 ether from this smart contract to recipient\n        emit TransactionDone(1, _recipient, true);\n    }\n}",
  "sourcePath": "/home/aissam/S9/CYBER/DPS/project/smart_contract/contracts/ToDoList.sol",
  "compiler": {
    "name": "solc",
    "version": "0.8.10+commit.fc410830.Emscripten.clang"
  },
  "schemaVersion": "3.4.3",
  "updatedAt": "2022-01-06T13:41:34.527Z",
  "devdoc": {
    "kind": "dev",
    "methods": {},
    "version": 1
  },
  "userdoc": {
    "kind": "user",
    "methods": {},
    "version": 1
  }
}